:04000000A2EF00F07B
:0C000800FACF2BF0FBCF2CF0C8EF12F069
:10001800D8CF02F0E8CF03F0E0CF04F0FACF05F034
:10002800FBCF06F0E9CF07F0EACF08F0E1CF09F0FF
:10003800E2CF0AF0D9CF0BF0DACF0CF0F3CF0DF006
:10004800F4CF0EF0F6CF0FF0F7CF10F0F8CF11F095
:10005800F5CF12F0F2A44FD0F294016E010E000118
:100068000001CA6F0150016E010E00010001C16F4D
:10007800015000010001B005D8A403D0000100011F
:10008800B92B00010001B051020AD8A408D0000120
:100098000001B405D8A403D000010001B92B000168
:1000A8000001B051020AD8A409D000010001B451DE
:1000B800020AD8A403D000010001BA2B00010001F4
:1000C800BB51D8B407D000010001BE6703D00001BE
:1000D8000001C02B00010001BB51D8B408D00001B9
:1000E8000001BE51D8B403D000010001BF2BFB0EA4
:1000F800D76E1E0ED66E12C0F5FF11C0F8FF10C0E5
:10010800F7FF0FC0F6FF0EC0F4FF0DC0F3FF0CC0E1
:10011800DAFF0BC0D9FF0AC0E2FF09C0E1FF08C03F
:10012800EAFF07C0E9FF06C0FBFF05C0FAFF04C0ED
:10013800E0FF03C0E8FF02C0D8FF100015EF15F07C
:100148006FEC15F0D00E00018D6FCA0EE82EFED7A9
:100158008D2FFCD7F5EC14F076EC15F000010001BA
:10016800CB6FF2EC10F06DEC12F0D5EC14F06CECF7
:1001780014F000018D6F000E00010001C76F00012F
:100188008D5100018D6F010E00010001C86F000143
:100198008D5100018D6F020E00010001C96F000131
:1001A8008D5193EC14F0B4EC14F000018D6F000E37
:1001B80000010001BB6F00018D5100018D6FC80E59
:1001C80000010001C26F00018D5100018D6F140EF6
:1001D80000010001C36F00018D5100018D6F000EF9
:1001E80000010001C46F00018D5100018D6F000EE8
:1001F80000010001C56F00018D51D00E00018D6F07
:10020800CA0EE82EFED78D2FFCD793EC07F0680EA8
:1002180000018D6FE40EE82EFED78D2FFCD700D09D
:1002280076EC09F044EC14F079EC15F000010001CB
:10023800936F3BEC0FF0BBC0BCF08DEC10F00001ED
:100248000001BB6F00010001BC5100010001BB1996
:10025800D8B404D000018D6F010E03D000018D6F5A
:10026800000E00010001BD6F00018D510001000169
:10027800BD51D8B466D000010001BB6762D000014F
:100288000001BE675ED000010001C151D8B459D049
:1002980000018D6F000E00010001C16F00018D513A
:1002A80000018D6F000E00010001C06F00018D512B
:1002B800BCC098F000018D6F010E00010001A06F15
:1002C80000018D51810E00018D6F030E8E6F0001AC
:1002D8000001CB5100018F6F906B00018F3B903B69
:1002E800F00E90178F510F0B9013F00E8F1700011F
:1002F8008D5100018F1300018E51000190130001F0
:100308008FC094F0000190C095F00001000E00012C
:1003180095BFFF0E0001966F0001976F00018D6F6A
:10032800000E00010001A16F00018D5120EE94F034
:1003380010EE60F00E0EDECFE6FFE82EFCD776EC6E
:1003480013F000010001BB51D8B46DD000010001C9
:10035800C25100010001C05DD8A065D000010001B4
:10036800BE6761D000018D6F000E00010001C16FF2
:1003780000018D5100018D6F010E00010001BE6F5B
:1003880000018D5100018D6F000E00010001C06F4A
:1003980000018D51BBC098F000018D6F010E000166
:1003A8000001A06F00018D51810E00018D6F030EB9
:1003B8008E6F00010001CB5100018F6F906B00011F
:1003C8008F3B903BF00E90178F510F0B9013F00E50
:1003D8008F1700018D5100018F1300018E5100010C
:1003E800901300018FC094F0000190C095F00001B7
:1003F800000E000195BFFF0E0001966F0001976F78
:1004080000018D6F000E00010001A16F00018D51E8
:1004180020EE94F010EE60F00E0EDECFE6FFE82E30
:10042800FCD776EC13F000010001BB51D8B466D0BC
:1004380000010001C35100010001BF5DD8A05ED0DA
:1004480000010001BE05D8A459D000018D6F000E2F
:1004580000010001C16F00018D5100018D6F000E78
:1004680000010001BF6F00018D51BBC098F0000171
:100478008D6F010E00010001A06F00018D51810EEA
:1004880000018D6F030E8E6F00010001CB5100013A
:100498008F6F906B00018F3B903BF00E90178F5140
:1004A8000F0B9013F00E8F1700018D5100018F1361
:1004B80000018E510001901300018FC094F00001DB
:1004C80090C095F00001000E000195BFFF0E0001DD
:1004D800966F0001976F00018D6F000E00010001FB
:1004E800A16F00018D5120EE94F010EE60F00E0E19
:1004F800DECFE6FFE82EFCD776EC13F00001000112
:10050800BB6725D000010001BE05D8A420D000019A
:100518008D6F000E00010001C16F00018D510001B7
:100528008D6F000E00010001BF6F00018D510001A9
:100538008D6F000E00010001C06F00018D51000198
:100548008D6F000E00010001BE6F00018D5100018A
:100558000001B005D8A409D000010001B95100017B
:100568000001B25DD8A04EEC15F000010001CA05EB
:10057800D8A43FD000010001B051020AD8A439D054
:1005880000010001B405D8A434D000010001B25123
:1005980000010001B95DD8A02CD0BB90BB92BB94E0
:1005A800BB9600018D6F000E00010001CA6F0001AB
:1005B8008D5100018D6F020E00010001B46F000122
:1005C8008D5100018D6F000E00010001B96F00010F
:1005D8008D5100018D6F000E00010001BA6F0001FE
:1005E8008D5100010001B551D8B403D000010001BC
:1005F800B62B00010001CA05D8A440D000010001B3
:10060800B051020AD8A43AD000010001B451020A3C
:10061800D8A434D000010001B35100010001BA5D33
:10062800D8A02CD000010001B65100010001B55D31
:10063800D8A024D0BB50F00B0C09BB6E00018D6F05
:10064800000E00010001CA6F00018D5100018D6F7D
:10065800010E00010001B46F00018D5100018D6F82
:10066800000E00010001BA6F00018D5100018D6F6D
:10067800000E00010001B96F00018D510001000159
:10068800CA05D8A43ED000010001B051020AD8A47E
:1006980038D000010001B451020AD8A432D00001B8
:1006A8000001BA5100010001B35DD8B02AD00001A1
:1006B8000001B65100010001B55DD8B022D000019B
:1006C8008D6F000E00010001CA6F00018D514EECC4
:1006D80015F000018D6F010E00010001B46F0001DB
:1006E8008D5100018D6F000E00010001BA6F0001ED
:1006F8008D5100018D6F000E00010001B96F0001DE
:100708008D51020102018F67DED31FEC10F020EE3D
:10071800A2F00E0EEECFDEFFE82EFCD7000100019E
:10072800CB5100018D6F8E6B00018D3B8E3BF00E1F
:100738008E178D510F0B8E13F00E8D17800E000142
:100748008D1100018F6F030E00018E110001906F53
:100758000001916B000190BF9107000191510001C8
:10076800926F00010001A5510001921911E10001E9
:100778000001A451000191190BE100010001A351EE
:100788000001901905E100010001A25100018F1933
:10079800D8A433D000010001A605D8A408D00001D0
:1007A8000001AE05D8A403D0C0EC13F06CD0000152
:1007B8000001A651020AD8A40ED000010001AE51D2
:1007C800030AD8A408D0A8C060F000010001A7510E
:1007D80039EC0DF058D000010001A651030AD8A445
:1007E80052D000010001AE51020AD8A44CD0000139
:1007F8000001A75111EC12F046D000010001CB51C5
:1008080000018D6F8E6B00018D3B8E3BF00E8E17B5
:100818008D510F0B8E13F00E8D17820E00018D1166
:1008280000018F6F030E00018E110001906F00010F
:10083800916B000190BF9107000191510001926FE7
:1008480000010001A5510001921911E10001000108
:10085800A451000191190BE100010001A35100010D
:10086800901905E100010001A25100018F19D8A4D7
:100878000AD000010001AE51020AD8A404D0A6C0D3
:10088800C4F0A7C0C5F000010001CB5100018D6F75
:100898008E6B00018D3B8E3BF00E8E178D510F0B2A
:1008A8008E13F00E8D17830E00018D1100018F6FCE
:1008B800030E00018E110001906F0001916B000181
:1008C80090BF9107000191510001926F0001000152
:1008D800A5510001921911E100010001A451000184
:1008E80091190BE100010001A3510001901905E1E4
:1008F80000010001A25100018F19D8A43BD00001CA
:100908000001A605D8A410D000010001AE51040AC8
:10091800D8A40AD0A8C069F0A9C06AF000010001F3
:10092800A75155EC11F026D000010001A651020A8A
:10093800D8A414D000010001AE51060AD8A40ED0E4
:10094800A8C069F0A9C06AF0AAC06BF0ABC06CF08F
:1009580000010001A751B5EC11F00CD00001000115
:10096800A651030AD8A406D000010001AE05D8B4E8
:100978004EEC15F000010001CB5100018D6F8E6B1C
:1009880000018D3B8E3BF00E8E178D510F0B8E1391
:10099800F00E8D17840E00018D1100018F6F030E6C
:1009A80000018E110001906F0001916B000190BF52
:1009B8009107000191510001926F00010001A551BA
:1009C8000001921911E100010001A45100019119DF
:1009D8000BE100010001A3510001901905E100019C
:1009E8000001A25100018F19D8A462D000010001B2
:1009F800AE05D8A468D200010001AF51400AD8A4BE
:100A080062D223EC13F023EC13F000018D6F000188
:100A1800D8908D3500010001931100010001986FF5
:100A280000018D6F010E00010001A06F00018D51C2
:100A3800840E00018D6F030E8E6F00010001CB51F3
:100A480000018F6F906B00018F3B903BF00E901769
:100A58008F510F0B9013F00E8F1700018D5100016D
:100A68008F1300018E510001901300018FC094F084
:100A7800000190C095F00001000E000195BFFF0E27
:100A88000001966F0001976F00018D6F000E000145
:100A98000001A16F00018D5120EE94F010EE60F07E
:100AA8000E0EDECFE6FFE82EFCD776EC13F00BD265
:100AB80000010001CB5100018D6F8E6B00018D3B51
:100AC8008E3BF00E8E178D510F0B8E13F00E8D1777
:100AD800850E00018D1100018F6F030E00018E112C
:100AE8000001906F0001916B000190BF9107000118
:100AF80091510001926F00010001A5510001921966
:100B080011E100010001A451000191190BE100015C
:100B18000001A3510001901905E100010001A25153
:100B280000018F19D8A40ED000010001AE51020AAD
:100B3800D8A4C9D1A7C060F000010001A65168EC93
:100B480015F0C1D100010001CB5100018D6F8E6BF2
:100B580000018D3B8E3BF00E8E178D510F0B8E13BF
:100B6800F00E8D17870E00018D1100018F6F030E97
:100B780000018E110001906F0001916B000190BF80
:100B88009107000191510001926F00010001A551E8
:100B98000001921911E100010001A451000191190D
:100BA8000BE100010001A3510001901905E10001CA
:100BB8000001A25100018F19D8A40BD00001000137
:100BC800AE05D8A480D100010001A6512DEC15F086
:100BD8007AD100010001CB5100018D6F8E6B0001AD
:100BE8008D3B8E3BF00E8E178D510F0B8E13F00E32
:100BF8008D17880E00018D1100018F6F030E000103
:100C08008E110001906F0001916B000190BF910758
:100C1800000191510001926F00010001A5510001EE
:100C2800921911E100010001A451000191190BE191
:100C380000010001A3510001901905E10001000124
:100C4800A25100018F19D8A40BD000010001AE05F4
:100C5800D8A439D100010001A6515DEC15F033D1BB
:100C680000010001CB5100018D6F8E6B00018D3B9F
:100C78008E3BF00E8E178D510F0B8E13F00E8D17C5
:100C8800860E00018D1100018F6F030E00018E1179
:100C98000001906F0001916B000190BF9107000166
:100CA80091510001926F00010001A55100019219B4
:100CB80011E100010001A451000191190BE10001AB
:100CC8000001A3510001901905E100010001A251A2
:100CD80000018F19D8A45ED000010001AF51400A6D
:100CE800D8A4F1D000018D6F010E00010001986FAA
:100CF80000018D5100018D6F010E00010001996FF7
:100D080000018D5100018D6F020E00010001A06FDE
:100D180000018D51860E00018D6F030E8E6F00014C
:100D28000001CB5100018F6F906B00018F3B903B0E
:100D3800F00E90178F510F0B9013F00E8F170001C4
:100D48008D5100018F1300018E5100019013000195
:100D58008FC094F0000190C095F00001000E0001D2
:100D680095BFFF0E0001966F0001976F00018D6F10
:100D7800000E00010001A16F00018D5120EE94F0DA
:100D880010EE60F00E0EDECFE6FFE82EFCD776EC14
:100D980013F099D000010001CB5100018D6F8E6BCB
:100DA80000018D3B8E3BF00E8E178D510F0B8E136D
:100DB800F00E8D178F0E00018D1100018F6F030E3D
:100DC80000018E110001906F0001916B000190BF2E
:100DD8009107000191510001926F00010001A55196
:100DE8000001921911E100010001A45100019119BB
:100DF8000BE100010001A3510001901905E1000178
:100E08000001A25100018F19D8A45DD00001000192
:100E1800AF51400AD8A457D000018D6F010E0001D0
:100E28000001986F00018D5100018D6F010E0001C6
:100E38000001996F00018D5100018D6F020E0001B4
:100E48000001A06F00018D518F0E00018D6F030E00
:100E58008E6F00010001CB5100018F6F906B000174
:100E68008F3B903BF00E90178F510F0B9013F00EA5
:100E78008F1700018D5100018F1300018E51000161
:100E8800901300018FC094F0000190C095F000010C
:100E9800000E000195BFFF0E0001966F0001976FCD
:100EA80000018D6F000E00010001A16F00018D513E
:100EB80020EE94F010EE60F00E0EDECFE6FFE82E86
:100EC800FCD776EC13F0010101018F671DEF01F0EB
:100ED8000F0120B71DEF01F0B1EC0FF020EE94F0F8
:100EE8000E0EEECFDEFFE82EFCD794C06BF095C057
:100EF8006CF096C06DF097C06EF00001000E000116
:100F08000001706F0001980E000100016F6FA0C012
:100F180071F0A1C072F093EC0BF01DEF01F0D00E50
:100F28000001606FCA0EE82EFED7602FFCD7D00EE6
:100F38000001606FCA0EE82EFED7602FFCD7D00ED6
:100F48000001606FCA0EE82EFED7602FFCD7D00EC6
:100F58000001606FCA0EE82EFED7602FFCD7949868
:100F6800949A949C949E8D908D928D8482500F0BB0
:100F780030098B6E0001606F000E00010001616F87
:100F88000001605103D000010001612B130E000124
:100F980000016165F8D78D94680E0001606FE40E5A
:100FA800E82EFED7602FFCD700D08D8482500F0B1F
:100FB80030098B6E0001606F000E00010001626F46
:100FC8000001605103D000010001622B130E0001E3
:100FD80000016265F8D78D94680E0001606FE40E19
:100FE800E82EFED7602FFCD700D08D8482500F0BDF
:100FF80030098B6E0001606F000E00010001636F05
:101008000001605103D000010001632B130E0001A1
:1010180000016365F8D78D94680E0001606FE40ED7
:10102800E82EFED7602FFCD700D08D8482500F0B9E
:1010380020098B6E0001606F000E00010001646FD3
:101048000001605103D000010001642B130E000160
:1010580000016465F8D78D94680E0001606FE40E96
:10106800E82EFED7602FFCD700D08D8482500F0B5E
:1010780020098B6E0001606F000E00010001656F92
:101088000001605103D000010001652B130E00011F
:1010980000016565F8D78D94680E0001606FE40E55
:1010A800E82EFED7602FFCD700D08D8482500F0B1E
:1010B800C0098B6E0001606F000E00010001666FB1
:1010C8000001605103D000010001662B130E0001DE
:1010D80000016665F8D78D94680E0001606FE40E14
:1010E800E82EFED7602FFCD700D08D8482500F0BDE
:1010F8008B6E0001606F000E00010001676F000138
:10110800605103D000010001672B130E000100019C
:101118006765F8D78D94680E0001606FE40EE82EBD
:10112800FED7602FFCD700D08D8482500F0B80092A
:101138008B6E0001606F000E00010001686F0001F6
:10114800605103D000010001682B130E000100015B
:101158006865F8D78D94680E0001606FE40EE82E7C
:10116800FED7602FFCD700D08D8482500F0B8B6E7A
:101178000001606F000E00010001696F00016051FD
:1011880003D000010001692B130E000100016965FD
:10119800F8D78D94680E0001606FE40EE82EFED734
:1011A800602FFCD700D08D8482500F0B10098B6EF6
:1011B8000001606F000E000100016A6F00016051BC
:1011C80003D0000100016A2B130E000100016A65BB
:1011D800F8D78D94680E0001606FE40EE82EFED7F4
:1011E800602FFCD700D08D8482500F0B8B6E0001CE
:1011F800606F000E000100016B6F0001605103D0A9
:10120800000100016B2B130E000100016B65F8D77C
:101218008D94680E0001606FE40EE82EFED7602FF3
:10122800FCD700D08D8482500F0B60098B6E0001B3
:10123800606F000E000100016C6F0001605103D067
:10124800000100016C2B130E000100016C65F8D73A
:101258008D94680E0001606FE40EE82EFED7602FB3
:10126800FCD700D08D8482500F0B8B6E0001606F0D
:10127800000E000100016D6F0001605103D00001F4
:1012880000016D2B130E000100016D65F8D78D94D8
:10129800680E0001606FE40EE82EFED7602FFCD7C1
:1012A80000D08D8482500F0BC0098B6E0001606FD7
:1012B800000E000100016E6F0001605103D00001B3
:1012C80000016E2B130E000100016E65F8D78D9496
:1012D800680E0001606FE40EE82EFED7602FFCD781
:1012E80000D012000001696F7E0E00010001606FDE
:1012F80000016951000E39EC0DF0C80E00F0E82E1F
:10130800FDD70001696F4E0E00010001606F0001FA
:101318006951060E39EC0DF0C80E00F0E82EFDD725
:101328000001696F610E00010001606F00016951E1
:10133800070E39EC0DF0C80E00F0E82EFDD70001BD
:10134800696F690E00010001606F00016951080EA4
:1013580039EC0DF0C80E00F0E82EFDD70001696FDA
:101368006F0E00010001606F00016951090E39EC30
:101378000DF0C80E00F0E82EFDD70001696F7F0E52
:1013880000010001606F000169510F0E39EC0DF08A
:10139800C80E00F0E82EFDD70001696F7E0E00012F
:1013A8000001606F00016951400E39EC0DF0C80E64
:1013B80000F0E82EFDD70001696F540E000100010E
:1013C800606F00016951420E39EC0DF0C80E00F053
:1013D800E82EFDD70001696F650E00010001606FFE
:1013E80000016951430E39EC0DF0C80E00F0E82EEB
:1013F800FDD70001696F630E00010001606F0001F5
:101408006951440E39EC0DF0C80E00F0E82EFDD7F6
:101418000001696F680E00010001606F00016951E9
:10142800450E39EC0DF0C80E00F0E82EFDD700018E
:10143800696F6E0E00010001606F00016951460E70
:1014480039EC0DF0C80E00F0E82EFDD70001696FE9
:101458006F0E00010001606F00016951470E39EC01
:101468000DF0C80E00F0E82EFDD70001696F6C0E74
:1014780000010001606F00016951480E39EC0DF060
:10148800C80E00F0E82EFDD70001696F6F0E00014D
:101498000001606F00016951490E39EC0DF0C80E6A
:1014A80000F0E82EFDD70001696F670E000100010A
:1014B800606F000169514A0E39EC0DF0C80E00F05A
:1014C800E82EFDD70001696F690E00010001606F09
:1014D800000169514B0E39EC0DF0C80E00F0E82EF2
:1014E800FDD70001696F650E00010001606F000102
:1014F80069514C0E39EC0DF0C80E00F0E82EFDD7FE
:101508000001696F730E00010001606F00016951ED
:101518004D0E39EC0DF0C80E00F0E82EFDD7000195
:10152800696F7F0E00010001606F000169514F0E65
:1015380039EC0DF0C80E00F0E82EFDD712000001BE
:10154800000E000100016A6F0001620E0001000137
:10155800696F0001000166674DD069C0D9FF6AC094
:10156800DAFFDF500001676F0001D8906733000190
:10157800D89067330001D890673160C0D9FF61C047
:10158800DAFFDF6E000120EE01F000016951D92673
:1015980000016A51DA22DF500001676F050E000171
:1015A800686F0001D89067370001682FFAD760C0CC
:1015B800D9FF61C0DAFF00016751DF1200010001A5
:1015C800604B612B69C0D9FF6AC0DAFFDF500001A8
:1015D800676F050E0001686F0001D890673700013A
:1015E800682FFAD70001675160C0D9FF61C0DAFFE0
:1015F800DF6E1200000120EE02F000016951D926C9
:1016080000016A51DA22DF500001676F050E000100
:10161800686F0001D89067330001682FFAD700017E
:10162800675160C0D9FF61C0DAFFDF6E000120EEAC
:1016380003F000016951D92600016A51DA22DF500E
:101648000001676F0001D89067370001D8906737AD
:101658000001D890673760C0D9FF61C0DAFF000188
:101668006751DF1200010001604B612B000120EE81
:1016780002F000016951D92600016A51DA22DF50CF
:101688000001676F0001D89067370001D89067376D
:101698000001D8906735E00B60C0D9FF61C0DAFF60
:1016A800DF6E60C0D9FF61C0DAFF000EDB86000183
:1016B80020EE02F000016951D92600016A51DA22B0
:1016C800DF500001676F030E0001671760C0D9FF84
:1016D80061C0DAFF00016751DF1200010001604BB1
:1016E800612B000120EE01F000016951D9260001AB
:1016F8006A51DA2260C0E1FF61C0E2FFDFCFE7FF95
:1017080000010001604B612B69C0D9FF6AC0DAFF94
:1017180060C0E1FF61C0E2FFDFCFE7FF12000F0109
:101728000F0E00010001756F0F01200E000100016E
:10173800746F0F010F0E00010001776F0F01100E7B
:1017480000010001766F0F010F0E00010001796F93
:101758000F01000E00010001786F0001736F000E89
:10176800000100018A6F00017351010E00010001A0
:101778008A6501D01200000100018A51020D0001A2
:10178800740EF324D96E0001000EF420DA6E000105
:10179800DECF8BF00001DDCF8CF0000100018CC0A2
:1017A80088F0000100018BC087F08BC0D9FF8CC086
:1017B800DAFFDF500001736F000173B793D08BC05D
:1017C800D9FF8CC0DAFFFC0EDF1672C073F0030E6F
:1017D800000173178BC0D9FF8CC0DAFF0001735169
:1017E800DF120001000172AD08D000010001715143
:1017F800400900010001896F02D071C089F0000121
:1018080020EE05F000018B51D92600018C51DA2217
:10181800000189C0DFFF0001000172AB04D00001A4
:10182800736F010E03D00001736F000E00010001F9
:10183800896F00017351010E000100018B25000121
:101848000001606F000E000100018C210001616F32
:101858006BC062F06CC063F06DC064F06EC065F080
:1018680089C066F0A3EC0AF0060E000100018B2780
:10187800000E00018C230001736F000E00010001AF
:10188800866F0001735115D06FC0D9FF70C0DAFFA1
:101898008BC0E1FF8CC0E2FFDFCFE7FF0001000152
:1018A8006F4B702B000100018B4B8C2B000100014A
:1018B800862B00010001715100010001865DD8A04E
:1018C800E3D787C0D9FF88C0DAFFDF500001736F04
:1018D800000173B5120087C0D9FF88C0DAFF000E77
:1018E800DB861200000100018A2B010E00010001B5
:1018F8008A6541D7120016C01BF015C01AF017668A
:101908004AD013C0D9FF14C0DAFFDF50186ED89040
:101918001836D8901836D89018341AC0D9FF1BC07A
:10192800DAFFDF6E20EE01F01A50D9261B50DA22BA
:1019380013C0E1FF14C0E2FFE750186E050E196EE0
:10194800D8901832192EFCD71850DF6E134A142A73
:1019580013C0D9FF14C0DAFFDF50186E050E196ED8
:10196800D8901832192EFCD71AC0D9FF1BC0DAFF3D
:101978001850DF1220EE02F01A50D9261B50DA2236
:10198800000EDF6E20EE03F01A50D9261B50DA2223
:10199800000EDF6E120020EE02F01A50D9261B50FE
:1019A800DA2213C0E1FF14C0E2FFE750186E050EFB
:1019B800196ED8901836192EFCD71850DF6E20EE05
:1019C80003F01A50D9261B50DA2213C0E1FF14C0C5
:1019D800E2FFE750186ED8901832D8901832D89095
:1019E8001830DF6E134A142A13C0D9FF14C0DAFF67
:1019F800DF50186E030E181620EE02F01A50D92682
:101A08001B50DA221850DF1213C0D9FF14C0DAFFB6
:101A1800DF50186ED8901832D8901832D8901832F3
:101A28001C0E181620EE02F01A50D9261B50DA2286
:101A38001850DF12134A142A13C0D9FF14C0DAFF52
:101A480010EE01F01A50E1261B50E222DFCFE7FF2B
:101A5800134A142A13C0D9FF14C0DAFF1AC0E1FFD1
:101A68001BC0E2FFDFCFE7FF1200E8CF68F09498D1
:101A7800949A949C949E8D908D92000100016851D7
:101A8800800900010001686F8D8468C061F0F00E64
:101A98000001611782500F0B000161118B6E00016C
:101AA800616F000E00010001626F0001615103D0F7
:101AB80000010001622B130E000100016265F8D7D6
:101AC8008D940001616F000E00010001636F000139
:101AD800615103D000010001632B130E00010001C6
:101AE8006365F8D78D8468C061F00001613BF00E32
:101AF8006117F00E0001611782500F0B0001611190
:101B08008B6E0001616F000E00010001646F00011F
:101B1800615103D000010001642B130E0001000184
:101B28006465F8D78D94C80E00F0E82EFDD78D8037
:101B38008D928D8460C061F0F00E000161178250B3
:101B48000F0B000161118B6E0001616F000E000127
:101B58000001656F0001615103D000010001652B90
:101B6800130E000100016565F8D78D940001616FBF
:101B7800000E00010001666F0001615103D00001F1
:101B88000001662B130E000100016665F8D78D84ED
:101B980060C061F00001613BF00E6117F00E0001BA
:101BA800611782500F0B000161118B6E0001616F8C
:101BB800000E00010001676F0001615103D00001B0
:101BC8000001672B130E000100016765F8D78D949B
:101BD8001200246E000E476E245060AE13D077902A
:101BE80071AE07D022C0D9FF23C0DAFF000EDB8612
:101BF800719E60A002D0478001D047900F0E296ED9
:101C0800600E21D00F0130AF1200779271AC07D06F
:101C180022C0D9FF23C0DAFF000EDB86719C0F01BA
:101C28000F013051070B476E020E475CD8B006D043
:101C380022C0D9FF23C0DAFF000EDB8E0F010F0E82
:101C4800296E0F01300E286E29C026F028C025F015
:101C580022C0D9FF23C0DAFF000EDF6E20EE05F0A8
:101C68002850D9262950DA22DF502A6E2A500F0B25
:101C780020C0D9FF21C0DAFFDF6E2AAC06D022C00F
:101C8800D9FF23C0DAFF000EDB8C20EE02F02850CB
:101C9800D9262950DA22DF502A6E2AA609D022C076
:101CA800D9FF23C0DAFF000EDB8A246E010E02D0B2
:101CB800246E000E2A6E2450010E2824136E000E86
:101CC8002920146E1DC016F01CC015F02AC017F08C
:101CD8007FEC0CF0060E2826000E292220C0D9FF22
:101CE80021C0DAFFDF502A6E246E000E276E2450C2
:101CF8000FD028C0D9FF29C0DAFF1EC0E1FF1FC0DE
:101D0800E2FFDFCFE7FF284A292A1E4A1F2A272A8F
:101D18002A50275CD8A0EDD777AE07D022C0D9FFCC
:101D280023C0DAFF000EDB88779E25C0D9FF26C0C6
:101D3800DAFF7F0EDF1612000001646F000E00014B
:101D48000001666F00016451000100016351800ABF
:101D5800F36E800EF35C000ED8B4625DD8B00FD07D
:101D680000010001626D0001631FD8B0632B000100
:101D7800646F010E00010001666F000164510001EB
:101D880000016151800AF36E800EF35C000ED8B436
:101D9800605DD8B00BD000010001606D0001611FCB
:101DA800D8B0612B010E00010001661B000E000176
:101DB8000001686F000E0001676F000100016351A8
:101DC8006211D8B443D00001646F010E0001000114
:101DD800656F0001645109D0000100010001D8902D
:101DE8006237633700010001652B0001000163AF12
:101DF800F3D7000100010001D89067376837000168
:101E08000001625100010001605D000100016351A1
:101E1800000100016159D8A00FD0000100016251F2
:101E280000010001605F0001000163510001000131
:101E3800615B000100016781000100010001D89089
:101E48006333623300010001652FD3D7000100011D
:101E58006651D8B407D000010001676D0001681F02
:101E6800D8B0682B67C060F068C061F0120000014C
:101E78000001C66717D095909582959495860001C4
:101E88000001C4A109D000010001C5A102D08C80C5
:101E980004D08C908C8402D08C908C94000100012A
:101EA800C62B120000010001C605D8A417D09590D2
:101EB80095829584959600010001C4A309D000017C
:101EC8000001C5A302D08C8004D08C908C8602D0EF
:101ED8008C908C9600010001C62B120000010001B5
:101EE800C651020AD8A417D09580959295949586E4
:101EF80000010001C4A509D000010001C5A502D058
:101F08008C8204D08C928C8402D08C928C940001A8
:101F18000001C62B120000010001C651030AD8A413
:101F28001200958095929584959600010001C4A7AA
:101F380009D000010001C5A702D08C8204D08C9280
:101F48008C8602D08C928C960001606F000E000186
:101F58000001C66F000160511200010101018F6785
:101F680051D0F29E010101018C510E0D000E0001AD
:101F78006E6F010E6F6FF35000016E27F450000171
:101F88006F236EC0D9FF6FC0DAFF10EE70F00E0E2F
:101F9800DECFE6FFE82EFCD700016E6F000E0101D0
:101FA80001018E6F00016E51010101018C2B0101AD
:101FB80001018C510A0AD8A408D000016E6F000EE6
:101FC800010101018C6F00016E51010101018C5169
:101FD800010121EE8DF0DF6208D000016E6F010E65
:101FE800010101018F6F00016E51F28E20EE7DF02C
:101FF80000EE6DF00E0EDDCFEDFFE82EFCD7E92ADE
:10200800EA221200000E00010001706F000E0001AC
:10201800716F000E0001726F000E0001736F20EEE9
:102028007DF000EE6DF00E0EDDCFEDFFE82EFCD753
:10203800E92AEA221200020102018F6751D0F29EBA
:10204800020102018C510E0D000E00016E6F020E8E
:102058006F6FF35000016E27F45000016F236EC0BC
:10206800D9FF6FC0DAFF10EE70F00E0EDECFE6FF7C
:10207800E82EFCD700016E6F000E020102018E6F80
:1020880000016E51020102018C2B020102018C51E8
:102098000A0AD8A408D000016E6F000E02010201DE
:1020A8008C6F00016E51020102018C51020122EE77
:1020B8008DF0DF6208D000016E6F010E020102018F
:1020C8008F6F00016E51F28E20EE7DF000EE6DF004
:1020D8000E0EDDCFEDFFE82EFCD7E92AEA2212002A
:1020E800000E00010001706F000E0001716F000EFC
:1020F8000001726F000E0001736F20EE7DF000EE9C
:102108006DF00E0EDDCFEDFFE82EFCD7E92AEA22AE
:1021180012000001606F000E00010001626F0001F3
:10212800605193809382938894809482948600016E
:10213800606F000E00010001616F0001605103D063
:1021480000010001612BC70E000100016165F8D78D
:1021580081B007D0000100016251010900010001AE
:10216800626F81B207D000010001625102090001CB
:102178000001626F81B807D00001000162510409B3
:1021880000010001626F82B007D0000100016251B6
:10219800080900010001626F82B207D00001000146
:1021A8006251100900010001626F82B607D0000178
:1021B80000016251200900010001626F939093921F
:1021C80093989490949294968A808A828A888B8035
:1021D8008B828B860001000162511200800E3EEC5A
:1021E80015F0010E0E010E01436F700E0E010E0167
:1021F800446F000E0E010E01456F300E706E729E18
:10220800729C000E606E000E0F010F01306F000E01
:102218000E010E01E06F000E0E010E01E16F000EBF
:102228000E010E01E46F000E0E010E01E56F000EA7
:102238000E010E01E86F000E0E010E01E96F000E8F
:102248000E010E01EC6F000E0E010E01ED6F000E77
:102258000E010E01F06F000E0E010E01F16F000E5F
:102268000E010E01F46F000E0E010E01F56F000E47
:102278000E010E01F86F000E0E010E01F96F0E012E
:102288000E01F997000E0E010E01FC6F000E0E01F3
:102298000E01FD6F0E010E01FD97000E3EEC15F0CC
:1022A8001200E8CF6CF000016B6F010E0001000115
:1022B800B06F00016B5169C0B2F06AC0B1F00001A3
:1022C80000016CC0B7F000010001B86B00016B6F32
:1022D800010E00010001B46F00016B5100016B6F2A
:1022E800000E00010001B96F00016B5100016B6F16
:1022F800000E00010001BA6F00016B5100016B6F05
:10230800000E00010001B56F00016B5100016B6FF9
:10231800000E00010001B36F00016B51A968A950BC
:10232800000100016A03F3CF6DF0F4CF6EF06DC0C9
:1023380060F06EC061F0000E00010001636FC80E0E
:102348000001626FA0EC0EF0000160C06DF00001AA
:1023580061C06EF06DC0BCFFBB50F00B0C09BB6ECA
:102368001200E8CF6EF000016D6F020E000100014F
:10237800B06F00016D5169C0B2F06AC0B3F06CC0B3
:10238800B1F0000100016EC0B7F000010001B86BA8
:1023980000016D6F010E00010001B46F00016D5165
:1023A80000016D6F000E00010001B96F00016D5151
:1023B80000016D6F000E00010001BA6F00016D5140
:1023C8006BC0B5F000016D6F000E00010001B66F23
:1023D80000016D51A968A950000100016C03F3CFF9
:1023E8006FF0F4CF70F06FC060F070C061F0000E55
:1023F80000010001636FC80E0001626FA0EC0EF0CF
:10240800000160C06FF0000161C070F06FC0BCFFD8
:10241800BB50F00B0C09BB6E1200E8CF61F094982A
:10242800949A949C949E8D908D928D8461C060F056
:10243800F00E0001601782500F0B000160118B6EC7
:102448000001606F000E00010001626F0001605121
:1024580003D000010001622B130E00010001626528
:10246800F8D78D940001606F000E00010001636FC2
:102478000001605103D000010001632B130E00011D
:1024880000016365F8D78D8461C060F00001603B8E
:10249800F00E6017F00E0001601782500F0B00015C
:1024A80060118B6E0001606F000E00010001646F07
:1024B8000001605103D000010001642B130E0001DC
:1024C80000016465F8D78D94C80E00F0E82EFDD79A
:1024D8001200FE0E0E010E01F86F000E0E010E0125
:1024E800F96FFE0E0E010E01FC6F000E0E010E01BB
:1024F800FD6F00010001CB510001606F616B0001AD
:10250800603B613BF00E611760510F0B6113F00ED9
:102518006017800E0001601100010001626F030E58
:10252800000161110001636F000162C060F00001E9
:1025380063C061F00001D890613360330001D89026
:10254800613360330001D89061336033000160511A
:102558000E010E01E06F000100016239E846E00B50
:102568000E010E01E16F000E0E010E01F06F000E5C
:102578000E010E01F16F000E0E010E01F46F000E38
:102588000E010E01F56F1200E9CF2DF0EACF2EF003
:10259800E1CF2FF0E2CF30F0D9CF31F0DACF32F0FF
:1025A800F3CF33F0F4CF34F0F6CF35F0F7CF36F081
:1025B800F8CF37F0F5CF38F0000E77B0010E77B2CC
:1025C800010EE8A01FD0000E1D6E390E1C6E000E05
:1025D8001F6E3D0E1E6E000E216E450E206E000E03
:1025E800236E460E226EEDEC0DF020EE39F010EE63
:1025F80013F00E0EDECFE6FFE82EFCD705EC14F044
:102608007790779238C0F5FF37C0F8FF36C0F7FFEC
:1026180035C0F6FF34C0F4FF33C0F3FF32C0DAFF31
:1026280031C0D9FF30C0E2FF2FC0E1FF2EC0EAFF62
:102638002DC0E9FF2CC0FBFF2BC0FAFF11009488C6
:10264800948A948C948E8D908D828D840001606F15
:10265800000E00010001626F0001605103D000010B
:102668000001622B130E000100016265F8D782AEEB
:1026780004D00001606F010E03D00001606F000EEE
:1026880000010001616F000160518D940001606FCD
:10269800000E00010001636F0001605103D00001CA
:1026A8000001632B130E000100016365F8D78D84C8
:1026B8000001606F000E00010001646F00016051AD
:1026C80003D000010001642B130E000100016465B2
:1026D800F8D78D949498949A949C949E0001000144
:1026E80061511200010101018E671200F29E20EE75
:1026F80060F0010101018D510E0D000E00016E6F99
:10270800010E6F6FF35000016E27F45000016F2324
:102718006EC0E1FF6FC0E2FF0E0EDECFE6FFE82ECF
:10272800FCD700016E6F000E010101018F6F0001DF
:102738006E51010101018D2B010101018D510A0A20
:10274800D8A408D000016E6F000E010101018D6F41
:1027580000016E51010101018C51010121EE8DF042
:10276800DF6208D000016E6F010E010101018E6F5A
:1027780000016E51F28E12009498949A949C949E43
:102788008D908D928D8482500F0B8B6E0001606F3F
:10279800000E00010001616F0001605103D00001CB
:1027A8000001612B130E000100016165F8D78D94BB
:1027B8000001606F000E00010001626F00016051AE
:1027C80003D000010001622B130E000100016265B5
:1027D800F8D78D8482500F0B10098B6E0001606F43
:1027E800000E00010001636F0001605103D0000179
:1027F8000001632B130E000100016365F8D78D9467
:102808001200020102018E67120020EE13F002018D
:1028180002018D510E0D000E216E020E226EF35034
:102828002126F450222221C0E1FF22C0E2FF0E0E31
:10283800DECFE6FFE82EFCD7216E000E0201020172
:102848008F6F2150020102018D2B020102018D516F
:102858000A0AD8A406D0216E000E020102018D6F6B
:102868002150020102018C51020122EE8DF0DF623B
:102878001200216E010E020102018E6F215012001A
:10288800D08E200EF26EF80EF16E000EF06E000E75
:102898009E6E000EA16E000EA46E000EB76E000EA6
:1028A800776E000E9D6E000EA06E000EA36E000ED9
:1028B800B66E030E766E000E9F6E000EA26E000EB0
:1028C800A56E000EB86E030E786EF28EF28C1200B2
:1028D8000F0E0F010F01506F000E0F010F014D6F0A
:1028E800000E0F010F014A6F0F0E0F010F01476F06
:1028F800010E996E000E0F010F01516F320E0F017C
:102908000F01486FCA84BB503F0B8009BB6EBB9058
:10291800BB92BB94BB967F0EBC6E888412000001EC
:10292800606F010E010101018F6F0001605100010C
:10293800606F000E010101018E6F000160510001FE
:10294800606F000E010101018C6F000160510001F0
:10295800606F000E010101018D6F000160511200CE
:102968000001606F010E020102018F6F00016051CA
:102978000001606F000E020102018E6F00016051BC
:102988000001606F000E020102018C6F00016051AE
:102998000001606F000E020102018D6F000160519D
:1029A8001200D59CD59AD596D550F80B0609D56E48
:1029B800FB0ED76E1E0ED66ED58ECA96CA98CA9AC8
:1029C800CA9CCA50FC0B0209CA6E640ECB6E88966C
:1029D8008898889A889C8850FC0B0209886EA96898
:1029E8001200000E0F010F015D6F000E0F010F01A5
:1029F8005C6F0F0E926EC80E936E8A848A8A8A80E4
:102A08008A828A88F00E946E8B948B808B828B8658
:102A1800C00E956E000E8C6E000E966E000E8D6EBA
:102A2800120002EE00F0900EEE6AE806FDE101EEFB
:102A380000F0900EEE6AE806FDE100EEB0F01C0E24
:102A4800EE6AE806FDE1476A000EF86E0001A4EFA1
:102A580000F0E8CF60F0650E00010001605DD8B0BD
:102A680012000001000160510008640F0F010F01FE
:102A7800516F1200E8CF60F01F0E6F1600010001C1
:102A880060516F126E50E00B000100016019D8B45C
:102A98001200F8D70001606F000E00010001B06F4E
:102AA80000016051BB90BB92BB94BB968C988C9AEA
:102AB8001200E8CF60F0650E00010001605DD8B03B
:102AC800120060C048FF1200E8CF61F061C0C2F098
:102AD80060C0C3F01200D38ED398D39AD39CFC0E57
:0E2AE800D31612008050070B1200010E1200D0
:1063DC00003CF642F648F64FF655F65BF661F6676A
:1063EC00F66DF673F679F67FF685F68BF691F696E2
:1063FC00F69CF6A2F6A8F6ADF6B3F6B9F6BEF6C460
:10640C00F6CAF6CFF6D5F6DAF6E0F6E5F6EAF6F0E9
:10641C00F6F5F6FBF600F705F70AF710F715F71A7D
:10642C00F71FF724F72AF72FF734F739F73EF7431E
:10643C00F748F74DF752F757F75CF760F765F76ACF
:10644C00F76FF774F779F77DF782F787F78BF7908B
:10645C00F795F799F79EF7A3F7A7F7ACF7B0F7B551
:10646C00F7B9F7BEF7C2F7C7F7CBF7D0F7D4F7D821
:10647C00F7DDF7E1F7E5F7EAF7EEF7F2F7F6F7FBFA
:10648C00F7FFF703F807F80BF80FF814F818F81CD7
:10649C00F820F824F828F82CF830F834F838F83CC0
:1064AC00F840F844F848F84CF84FF853F857F85BB4
:1064BC00F85FF863F866F86AF86EF872F875F879B0
:1064CC00F87DF881F884F888F88CF88FF893F896B2
:1064DC00F89AF89EF8A1F8A5F8A8F8ACF8AFF8B3BC
:1064EC00F8B6F8BAF8BDF8C1F8C4F8C8F8CBF8CECD
:1064FC00F8D2F8D5F8D8F8DCF8DFF8E3F8E6F8E9E4
:10650C00F8ECF8F0F8F3F8F6F8F9F8FDF800F90300
:10651C00F906F909F90DF910F913F916F919F91C1D
:10652C00F91FF923F926F929F92CF92FF932F93544
:10653C00F938F93BF93EF941F944F947F94AF94D73
:10654C00F950F953F956F958F95BF95EF961F964A8
:10655C00F967F96AF96CF96FF972F975F978F97BE1
:10656C00F97DF980F983F986F988F98BF98EF9911F
:10657C00F993F996F999F99BF99EF9A1F9A3F9A662
:10658C00F9A9F9ABF9AEF9B0F9B3F9B6F9B8F9BBA9
:10659C00F9BDF9C0F9C3F9C5F9C8F9CAF9CDF9CFF4
:1065AC00F9D2F9D4F9D7F9D9F9DCF9DEF9E1F9E343
:1065BC00F9E6F9E8F9EAF9EDF9EFF9F2F9F4F9F697
:1065CC00F9F9F9FBF9FEF900FA02FA05FA07FA09EA
:1065DC00FA0CFA0EFA10FA13FA15FA17FA19FA1C41
:1065EC00FA1EFA20FA22FA25FA27FA29FA2BFA2EA1
:1065FC00FA30FA32FA34FA37FA39FA3BFA3DFA3F02
:10660C00FA41FA44FA46FA48FA4AFA4CFA4EFA5067
:10661C00FA53FA55FA57FA59FA5BFA5DFA5FFA61CE
:10662C00FA63FA65FA67FA69FA6BFA6DFA6FFA723D
:10663C00FA74FA76FA78FA7AFA7CFA7EFA80FA82A6
:10664C00FA84FA85FA87FA89FA8BFA8DFA8FFA911D
:10665C00FA93FA95FA97FA99FA9BFA9DFA9FFAA08F
:10666C00FAA2FAA4FAA6FAA8FAAAFAACFAAEFAAF07
:10667C00FAB1FAB3FAB5FAB7FAB9FABAFABCFABE81
:10668C00FAC0FAC2FAC4FAC5FAC7FAC9FACBFACCFC
:10669C00FACEFAD0FAD2FAD3FAD5FAD7FAD9FADA7C
:1066AC00FADCFADEFAE0FAE1FAE3FAE5FAE7FAE8FC
:1066BC00FAEAFAECFAEDFAEFFAF1FAF2FAF4FAF67F
:1066CC00FAF7FAF9FAFBFAFCFAFEFA00FB01FB0303
:1066DC00FB04FB06FB08FB09FB0BFB0DFB0EFB1085
:1066EC00FB11FB13FB15FB16FB18FB19FB1BFB1C0F
:1066FC00FB1EFB20FB21FB23FB24FB26FB27FB299A
:10670C00FB2AFB2CFB2DFB2FFB30FB32FB33FB3529
:10671C00FB37FB38FB3AFB3BFB3CFB3EFB3FFB41B7
:10672C00FB42FB44FB45FB47FB48FB4AFB4BFB4D49
:10673C00FB4EFB50FB51FB52FB54FB55FB57FB58DC
:10674C00FB5AFB5BFB5CFB5EFB5FFB61FB62FB6371
:10675C00FB65FB66FB68FB69FB6AFB6CFB6DFB6E08
:10676C00FB70FB71FB72FB74FB75FB77FB78FB79A1
:10677C00FB7BFB7CFB7DFB7FFB80FB81FB83FB843A
:10678C00FB85FB87FB88FB89FB8AFB8CFB8DFB8ED7
:10679C00FB90FB91FB92FB93FB95FB96FB97FB9974
:1067AC00FB9AFB9BFB9CFB9EFB9FFBA0FBA1FBA313
:1067BC00FBA4FBA5FBA6FBA8FBA9FBAAFBABFBADB3
:1067CC00FBAEFBAFFBB0FBB1FBB3FBB4FBB5FBB655
:1067DC00FBB8FBB9FBBAFBBBFBBCFBBDFBBFFBC0F7
:1067EC00FBC1FBC2FBC3FBC5FBC6FBC7FBC8FBC99C
:1067FC00FBCAFBCCFBCDFBCEFBCFFBD0FBD1FBD242
:10680C00FBD4FBD5FBD6FBD7FBD8FBD9FBDAFBDCE7
:10681C00FBDDFBDEFBDFFBE0FBE1FBE2FBE3FBE490
:10682C00FBE6FBE7FBE8FBE9FBEAFBEBFBECFBED38
:10683C00FBEEFBEFFBF0FBF2FBF3FBF4FBF5FBF6E3
:10684C00FBF7FBF8FBF9FBFAFBFBFBFCFBFDFBFE90
:10685C00FBFFFB00FC02FC03FC04FC05FC06FC0734
:10686C00FC08FC09FC0AFC0BFC0CFC0DFC0EFC0FE0
:10687C00FC10FC11FC12FC13FC14FC15FC16FC1790
:10688C00FC18FC19FC1AFC1BFC1CFC1DFC1EFC1F40
:10689C00FC20FC21FC22FC23FC24FC25FC26FC27F0
:1068AC00FC28FC29FC2AFC2BFC2CFC2DFC2EFC2EA1
:1068BC00FC2FFC30FC31FC32FC33FC34FC35FC3658
:1068CC00FC37FC38FC39FC3AFC3BFC3CFC3DFC3E08
:1068DC00FC3EFC3FFC40FC41FC42FC43FC44FC45C0
:1068EC00FC46FC47FC48FC49FC49FC4AFC4BFC4C74
:1068FC00FC4DFC4EFC4FFC50FC51FC51FC52FC532B
:10690C00FC54FC55FC56FC57FC58FC59FC59FC5AE1
:10691C00FC5BFC5CFC5DFC5EFC5FFC5FFC60FC619A
:10692C00FC62FC63FC64FC65FC65FC66FC67FC6853
:10693C00FC69FC6AFC6BFC6BFC6CFC6DFC6EFC6F0C
:10694C00FC70FC70FC71FC72FC73FC74FC75FC75C7
:10695C00FC76FC77FC78FC79FC79FC7AFC7BFC7C83
:10696C00FC7DFC7EFC7EFC7FFC80FC81FC82FC823E
:10697C00FC83FC84FC85FC86FC86FC87FC88FC89FB
:10698C00FC89FC8AFC8BFC8CFC8DFC8DFC8EFC8FBA
:10699C00FC90FC90FC91FC92FC93FC94FC94FC9578
:1069AC00FC96FC97FC97FC98FC99FC9AFC9AFC9B37
:1069BC00FC9CFC9DFC9DFC9EFC9FFCA0FCA0FCA1F7
:1069CC00FCA2FCA3FCA3FCA4FCA5FCA6FCA6FCA7B7
:1069DC00FCA8FCA9FCA9FCAAFCABFCABFCACFCAD78
:1069EC00FCAEFCAEFCAFFCB0FCB1FCB1FCB2FCB339
:1069FC00FCB3FCB4FCB5FCB6FCB6FCB7FCB8FCB8FC
:106A0C00FCB9FCBAFCBAFCBBFCBCFCBDFCBDFCBEBE
:106A1C00FCBFFCBFFCC0FCC1FCC1FCC2FCC3FCC382
:106A2C00FCC4FCC5FCC6FCC6FCC7FCC8FCC8FCC945
:106A3C00FCCAFCCAFCCBFCCCFCCCFCCDFCCEFCCE0A
:106A4C00FCCFFCD0FCD0FCD1FCD2FCD2FCD3FCD4CF
:106A5C00FCD4FCD5FCD6FCD6FCD7FCD8FCD8FCD995
:106A6C00FCDAFCDAFCDBFCDBFCDCFCDDFCDDFCDE5C
:106A7C00FCDFFCDFFCE0FCE1FCE1FCE2FCE3FCE322
:106A8C00FCE4FCE4FCE5FCE6FCE6FCE7FCE8FCE8EA
:106A9C00FCE9FCE9FCEAFCEBFCEBFCECFCEDFCEDB2
:106AAC00FCEEFCEEFCEFFCF0FCF0FCF1FCF2FCF27A
:106ABC00FCF3FCF3FCF4FCF5FCF5FCF6FCF6FCF743
:106ACC00FCF8FCF8FCF9FCF9FCFAFCFBFCFBFCFC0C
:106ADC00FCFCFCFDFCFEFCFEFCFFFCFFFC00FD01D5
:106AEC00FD01FD02FD02FD03FD03FD04FD05FD0599
:106AFC00FD06FD06FD07FD08FD08FD09FD09FD0A63
:106B0C00FD0AFD0BFD0CFD0CFD0DFD0DFD0EFD0E2E
:106B1C00FD0FFD10FD10FD11FD11FD12FD12FD13F9
:106B2C00FD13FD14FD15FD15FD16FD16FD17FD17C6
:106B3C00FD18FD19FD19FD1AFD1AFD1BFD1BFD1C91
:106B4C00FD1CFD1DFD1DFD1EFD1FFD1FFD20FD205F
:106B5C00FD21FD21FD22FD22FD23FD23FD24FD242D
:106B6C00FD25FD26FD26FD27FD27FD28FD28FD29F9
:106B7C00FD29FD2AFD2AFD2BFD2BFD2CFD2CFD2DC9
:106B8C00FD2DFD2EFD2EFD2FFD30FD30FD31FD3197
:106B9C00FD32FD32FD33FD33FD34FD34FD35FD3565
:106BAC00FD36FD36FD37FD37FD38FD38FD39FD3935
:106BBC00FD3AFD3AFD3BFD3BFD3CFD3CFD3DFD3D05
:106BCC00FD3EFD3EFD3FFD3FFD40FD40FD41FD41D5
:106BDC00FD42FD42FD43FD43FD44FD44FD45FD45A5
:106BEC00FD46FD46FD47FD47FD48FD48FD49FD4975
:106BFC00FD4AFD4AFD4BFD4BFD4BFD4CFD4CFD4D47
:106C0C00FD4DFD4EFD4EFD4FFD4FFD50FD50FD5118
:106C1C00FD51FD52FD52FD53FD53FD54FD54FD54E9
:106C2C00FD55FD55FD56FD56FD57FD57FD58FD58BC
:106C3C00FD59FD59FD5AFD5AFD5AFD5BFD5BFD5C8E
:106C4C00FD5CFD5DFD5DFD5EFD5EFD5FFD5FFD6060
:106C5C00FD60FD60FD61FD61FD62FD62FD63FD6334
:106C6C00FD64FD64FD64FD65FD65FD66FD66FD6707
:106C7C00FD67FD68FD68FD68FD69FD69FD6AFD6ADB
:106C8C00FD6BFD6BFD6BFD6CFD6CFD6DFD6DFD6EAF
:106C9C00FD6EFD6FFD6FFD6FFD70FD70FD71FD7183
:106CAC00FD72FD72FD72FD73FD73FD74FD74FD7557
:106CBC00FD75FD75FD76FD76FD77FD77FD77FD782D
:106CCC00FD78FD79FD79FD7AFD7AFD7AFD7BFD7B02
:106CDC00FD7CFD7CFD7CFD7DFD7DFD7EFD7EFD7FD7
:106CEC00FD7FFD7FFD80FD80FD81FD81FD81FD82AD
:106CFC00FD82FD83FD83FD83FD84FD84FD85FD8583
:106D0C00FD85FD86FD86FD87FD87FD87FD88FD8859
:106D1C00FD89FD89FD89FD8AFD8AFD8BFD8BFD8B2F
:106D2C00FD8CFD8CFD8DFD8DFD8DFD8EFD8EFD8F05
:106D3C00FD8FFD8FFD90FD90FD91FD91FD91FD92DC
:106D4C00FD92FD92FD93FD93FD94FD94FD94FD95B4
:106D5C00FD95FD96FD96FD96FD97FD97FD97FD988B
:106D6C00FD98FD99FD99FD99FD9AFD9AFD9BFD9B62
:106D7C00FD9BFD9CFD9CFD9CFD9DFD9DFD9DFD9E3B
:106D8C00FD9EFD9FFD9FFD9FFDA0FDA0FDA0FDA113
:106D9C00FDA1FDA2FDA2FDA2FDA3FDA3FDA3FDA4EB
:106DAC00FDA4FDA4FDA5FDA5FDA6FDA6FDA6FDA7C4
:106DBC00FDA7FDA7FDA8FDA8FDA8FDA9FDA9FDAA9D
:106DCC00FDAAFDAAFDABFDABFDABFDACFDACFDAC76
:106DDC00FDADFDADFDADFDAEFDAEFDAFFDAFFDAF4F
:106DEC00FDB0FDB0FDB0FDB1FDB1FDB1FDB2FDB228
:106DFC00FDB2FDB3FDB3FDB3FDB4FDB4FDB4FDB503
:106E0C00FDB5FDB5FDB6FDB6FDB7FDB7FDB7FDB8DB
:106E1C00FDB8FDB8FDB9FDB9FDB9FDBAFDBAFDBAB5
:106E2C00FDBBFDBBFDBBFDBCFDBCFDBCFDBDFDBD8F
:106E3C00FDBDFDBEFDBEFDBEFDBFFDBFFDBFFDC06A
:106E4C00FDC0FDC0FDC1FDC1FDC1FDC2FDC2FDC245
:106E5C00FDC3FDC3FDC3FDC4FDC4FDC4FDC5FDC51F
:106E6C00FDC5FDC6FDC6FDC6FDC7FDC7FDC7FDC7FB
:106E7C00FDC8FDC8FDC8FDC9FDC9FDC9FDCAFDCAD7
:106E8C00FDCAFDCBFDCBFDCBFDCCFDCCFDCCFDCDB2
:106E9C00FDCDFDCDFDCEFDCEFDCEFDCFFDCFFDCF8D
:106EAC00FDCFFDD0FDD0FDD0FDD1FDD1FDD1FDD26A
:106EBC00FDD2FDD2FDD3FDD3FDD3FDD4FDD4FDD445
:106ECC00FDD4FDD5FDD5FDD5FDD6FDD6FDD6FDD722
:106EDC00FDD7FDD7FDD8FDD8FDD8FDD8FDD9FDD9FE
:106EEC00FDD9FDDAFDDAFDDAFDDBFDDBFDDBFDDBDB
:106EFC00FDDCFDDCFDDCFDDDFDDDFDDDFDDEFDDEB7
:106F0C00FDDEFDDEFDDFFDDFFDDFFDE0FDE0FDE094
:106F1C00FDE1FDE1FDE1FDE1FDE2FDE2FDE2FDE370
:106F2C00FDE3FDE3FDE3FDE4FDE4FDE4FDE5FDE54E
:106F3C00FDE5FDE5FDE6FDE6FDE6FDE7FDE7FDE72C
:106F4C00FDE8FDE8FDE8FDE8FDE9FDE9FDE9FDEA08
:106F5C00FDEAFDEAFDEAFDEBFDEBFDEBFDECFDECE6
:106F6C00FDECFDECFDEDFDEDFDEDFDEDFDEEFDEEC5
:106F7C00FDEEFDEFFDEFFDEFFDEFFDF0FDF0FDF0A3
:106F8C00FDF1FDF1FDF1FDF1FDF2FDF2FDF2FDF380
:106F9C00FDF3FDF3FDF3FDF4FDF4FDF4FDF4FDF55F
:106FAC00FDF5FDF5FDF6FDF6FDF6FDF6FDF7FDF73D
:106FBC00FDF7FDF7FDF8FDF8FDF8FDF9FDF9FDF91C
:106FCC00FDF9FDFAFDFAFDFAFDFAFDFBFDFBFDFBFB
:106FDC00FDFBFDFCFDFCFDFCFDFDFDFDFDFDFDFDDA
:106FEC00FDFEFDFEFDFEFDFEFDFFFDFFFDFFFDFFB9
:106FFC00FD00FE00FE00FE00FE01FE01FE01FE0291
:10700C00FE02FE02FE02FE03FE03FE03FE03FE046E
:10701C00FE04FE04FE04FE05FE05FE05FE05FE064E
:10702C00FE06FE06FE06FE07FE07FE07FE07FE082E
:10703C00FE08FE08FE08FE09FE09FE09FE09FE0A0E
:10704C00FE0AFE0AFE0AFE0BFE0BFE0BFE0BFE0CEE
:10705C00FE0CFE0CFE0CFE0DFE0DFE0DFE0DFE0ECE
:10706C00FE0EFE0EFE0EFE0FFE0FFE0FFE0FFE10AE
:10707C00FE10FE10FE10FE11FE11FE11FE11FE128E
:10708C00FE12FE12FE12FE13FE13FE13FE13FE146E
:10709C00FE14FE14FE14FE15FE15FE15FE15FE164E
:1070AC00FE16FE16FE16FE17FE17FE17FE17FE172F
:1070BC00FE18FE18FE18FE18FE19FE19FE19FE1910
:1070CC00FE1AFE1AFE1AFE1AFE1BFE1BFE1BFE1BF0
:1070DC00FE1CFE1CFE1CFE1CFE1CFE1DFE1DFE1DD1
:1070EC00FE1DFE1EFE1EFE1EFE1EFE1FFE1FFE1FB2
:1070FC00FE1FFE1FFE20FE20FE20FE20FE21FE2194
:10710C00FE21FE21FE22FE22FE22FE22FE22FE2374
:10711C00FE23FE23FE23FE24FE24FE24FE24FE2456
:10712C00FE25FE25FE25FE25FE26FE26FE26FE2637
:10713C00FE27FE27FE27FE27FE27FE28FE28FE2818
:10714C00FE28FE29FE29FE29FE29FE29FE2AFE2AFA
:10715C00FE2AFE2AFE2BFE2BFE2BFE2BFE2BFE2CDC
:10716C00FE2CFE2CFE2CFE2CFE2DFE2DFE2DFE2DBF
:10717C00FE2EFE2EFE2EFE2EFE2EFE2FFE2FFE2FA0
:10718C00FE2FFE30FE30FE30FE30FE30FE31FE3182
:10719C00FE31FE31FE31FE32FE32FE32FE32FE3365
:1071AC00FE33FE33FE33FE33FE34FE34FE34FE3447
:1071BC00FE34FE35FE35FE35FE35FE35FE36FE362A
:1071CC00FE36FE36FE37FE37FE37FE37FE37FE380C
:1071DC00FE38FE38FE38FE38FE39FE39FE39FE39EF
:1071EC00FE39FE3AFE3AFE3AFE3AFE3AFE3BFE3BD2
:1071FC00FE3BFE3BFE3CFE3CFE3CFE3CFE3CFE3DB4
:10720C00FE3DFE3DFE3DFE3DFE3EFE3EFE3EFE3E96
:10721C00FE3EFE3FFE3FFE3FFE3FFE3FFE40FE4079
:10722C00FE40FE40FE40FE41FE41FE41FE41FE415D
:10723C00FE42FE42FE42FE42FE42FE43FE43FE433F
:10724C00FE43FE43FE44FE44FE44FE44FE44FE4523
:10725C00FE45FE45FE45FE45FE46FE46FE46FE4606
:10726C00FE46FE46FE47FE47FE47FE47FE47FE48EB
:10727C00FE48FE48FE48FE48FE49FE49FE49FE49CE
:10728C00FE49FE4AFE4AFE4AFE4AFE4AFE4BFE4BB1
:10729C00FE4BFE4BFE4BFE4CFE4CFE4CFE4CFE4C95
:1072AC00FE4CFE4DFE4DFE4DFE4DFE4DFE4EFE4E79
:1072BC00FE4EFE4EFE4EFE4FFE4FFE4FFE4FFE4F5D
:1072CC00FE4FFE50FE50FE50FE50FE50FE51FE5141
:1072DC00FE51FE51FE51FE52FE52FE52FE52FE5225
:1072EC00FE52FE53FE53FE53FE53FE53FE54FE5409
:1072FC00FE54FE54FE54FE54FE55FE55FE55FE55EE
:10730C00FE55FE56FE56FE56FE56FE56FE56FE57D1
:10731C00FE57FE57FE57FE57FE58FE58FE58FE58B5
:10732C00FE58FE58FE59FE59FE59FE59FE59FE5A9A
:10733C00FE5AFE5AFE5AFE5AFE5AFE5BFE5BFE5B7E
:10734C00FE5BFE5BFE5BFE5CFE5CFE5CFE5CFE5C64
:10735C00FE5DFE5DFE5DFE5DFE5DFE5DFE5EFE5E47
:10736C00FE5EFE5EFE5EFE5EFE5FFE5FFE5FFE5F2D
:10737C00FE5FFE60FE60FE60FE60FE60FE60FE6111
:10738C00FE61FE61FE61FE61FE61FE62FE62FE62F6
:10739C00FE62FE62FE62FE63FE63FE63FE63FE63DC
:1073AC00FE63FE64FE64FE64FE64FE64FE64FE65C1
:1073BC00FE65FE65FE65FE65FE65FE66FE66FE66A6
:1073CC00FE66FE66FE66FE67FE67FE67FE67FE678C
:1073DC00FE68FE68FE68FE68FE68FE68FE69FE696F
:1073EC00FE69FE69FE69FE69FE69FE6AFE6AFE6A56
:1073FC00FE6AFE6AFE6AFE6BFE6BFE6BFE6BFE6B3C
:10740C00FE6BFE6CFE6CFE6CFE6CFE6CFE6CFE6D20
:10741C00FE6DFE6DFE6DFE6DFE6DFE6EFE6EFE6E05
:10742C00FE6EFE6EFE6EFE6FFE6FFE6FFE6FFE6FEB
:10743C00FE6FFE70FE70FE70FE70FE70FE70FE70D1
:10744C00FE71FE71FE71FE71FE71FE71FE72FE72B6
:10745C00FE72FE72FE72FE72FE73FE73FE73FE739C
:10746C00FE73FE73FE73FE74FE74FE74FE74FE7483
:10747C00FE74FE75FE75FE75FE75FE75FE75FE7668
:10748C00FE76FE76FE76FE76FE76FE76FE77FE774E
:10749C00FE77FE77FE77FE77FE78FE78FE78FE7834
:1074AC00FE78FE78FE78FE79FE79FE79FE79FE791B
:1074BC00FE79FE7AFE7AFE7AFE7AFE7AFE7AFE7A01
:1074CC00FE7BFE7BFE7BFE7BFE7BFE7BFE7BFE7CE7
:1074DC00FE7CFE7CFE7CFE7CFE7CFE7DFE7DFE7DCD
:1074EC00FE7DFE7DFE7DFE7DFE7EFE7EFE7EFE7EB4
:1074FC00FE7EFE7EFE7EFE7FFE7FFE7FFE7FFE7F9B
:10750C00FE7FFE80FE80FE80FE80FE80FE80FE8080
:10751C00FE81FE81FE81FE81FE81FE81FE81FE8266
:10752C00FE82FE82FE82FE82FE82FE82FE83FE834D
:10753C00FE83FE83FE83FE83FE83FE84FE84FE8434
:10754C00FE84FE84FE84FE84FE85FE85FE85FE851B
:10755C00FE85FE85FE85FE86FE86FE86FE86FE8602
:10756C00FE86FE86FE87FE87FE87FE87FE87FE87E9
:10757C00FE87FE88FE88FE88FE88FE88FE88FE88D0
:10758C00FE89FE89FE89FE89FE89FE89FE89FE8AB6
:10759C00FE8AFE8AFE8AFE8AFE8AFE8AFE8BFE8B9D
:1075AC00FE8BFE8BFE8BFE8BFE8BFE8CFE8CFE8C84
:1075BC00FE8CFE8CFE8CFE8CFE8DFE8DFE8DFE8D6B
:1075CC00FE8DFE8DFE8DFE8DFE8EFE8EFE8EFE8E53
:1075DC00FE8EFE8EFE8EFE8FFE8FFE8FFE8FFE8F3A
:1075EC00FE8FFE8FFE90FE90FE90FE90FE90FE9021
:1075FC00FE90FE90FE91FE91FE91FE91FE91FE9109
:10760C00FE91FE92FE92FE92FE92FE92FE92FE92EF
:10761C00FE93FE93FE93FE93FE93FE93FE93FE93D6
:10762C00FE94FE94FE94FE94FE94FE94FE94FE94BE
:10763C00FE95FE95FE95FE95FE95FE95FE95FE96A5
:10764C00FE96FE96FE96FE96FE96FE96FE96FE978D
:10765C00FE97FE97FE97FE97FE97FE97FE98FE9874
:10766C00FE98FE98FE98FE98FE98FE98FE99FE995C
:10767C00FE99FE99FE99FE99FE99FE99FE9AFE9A44
:10768C00FE9AFE9AFE9AFE9AFE9AFE9AFE9BFE9B2C
:10769C00FE9BFE9BFE9BFE9BFE9BFE9BFE9CFE9C14
:1076AC00FE9CFE9CFE9CFE9CFE9CFE9DFE9DFE9DFB
:1076BC00FE9DFE9DFE9DFE9DFE9DFE9EFE9EFE9EE3
:1076CC00FE9EFE9EFE9EFE9EFE9EFE9FFE9FFE9FCB
:1076DC00FE9FFE9FFE9FFE9FFE9FFEA0FEA0FEA0B3
:1076EC00FEA0FEA0FEA0FEA0FEA0FEA1FEA1FEA19B
:1076FC00FEA1FEA1FEA1FEA1FEA1FEA1FEA2FEA284
:10770C00FEA2FEA2FEA2FEA2FEA2FEA2FEA3FEA36B
:10771C00FEA3FEA3FEA3FEA3FEA3FEA3FEA4FEA453
:10772C00FEA4FEA4FEA4FEA4FEA4FEA4FEA5FEA53B
:10773C00FEA5FEA5FEA5FEA5FEA5FEA5FEA5FEA624
:10774C00FEA6FEA6FEA6FEA6FEA6FEA6FEA6FEA70C
:10775C00FEA7FEA7FEA7FEA7FEA7FEA7FEA7FEA8F4
:10776C00FEA8FEA8FEA8FEA8FEA8FEA8FEA8FEA8DD
:10777C00FEA9FEA9FEA9FEA9FEA9FEA9FEA9FEA9C5
:10778C00FEAAFEAAFEAAFEAAFEAAFEAAFEAAFEAAAD
:10779C00FEAAFEABFEABFEABFEABFEABFEABFEAB96
:1077AC00FEABFEACFEACFEACFEACFEACFEACFEAC7E
:1077BC00FEACFEACFEADFEADFEADFEADFEADFEAD67
:1077CC00FEADFEADFEADFEAEFEAEFEAEFEAEFEAE50
:1077DC00FEAEFEAEFEAEFEAFFEAFFEAFFEAFFEAF38
:1077EC00FEAFFEAFFEAFFEAFFEB0FEB0FEB0FEB021
:1077FC00FEB0FEB0FEB0FEB0FEB0FEB1FEB1FEB10A
:10780C00FEB1FEB1FEB1FEB1FEB1FEB1FEB2FEB2F2
:10781C00FEB2FEB2FEB2FEB2FEB2FEB2FEB2FEB3DB
:10782C00FEB3FEB3FEB3FEB3FEB3FEB3FEB3FEB3C4
:10783C00FEB4FEB4FEB4FEB4FEB4FEB4FEB4FEB4AC
:10784C00FEB4FEB5FEB5FEB5FEB5FEB5FEB5FEB595
:10785C00FEB5FEB5FEB6FEB6FEB6FEB6FEB6FEB67E
:10786C00FEB6FEB6FEB6FEB7FEB7FEB7FEB7FEB767
:10787C00FEB7FEB7FEB7FEB7FEB7FEB8FEB8FEB851
:10788C00FEB8FEB8FEB8FEB8FEB8FEB8FEB9FEB93A
:10789C00FEB9FEB9FEB9FEB9FEB9FEB9FEB9FEBA23
:1078AC00FEBAFEBAFEBAFEBAFEBAFEBAFEBAFEBA0C
:1078BC00FEBAFEBBFEBBFEBBFEBBFEBBFEBBFEBBF5
:1078CC00FEBBFEBBFEBCFEBCFEBCFEBCFEBCFEBCDE
:1078DC00FEBCFEBCFEBCFEBCFEBDFEBDFEBDFEBDC8
:1078EC00FEBDFEBDFEBDFEBDFEBDFEBEFEBEFEBEB1
:1078FC00FEBEFEBEFEBEFEBEFEBEFEBEFEBEFEBF9B
:10790C00FEBFFEBFFEBFFEBFFEBFFEBFFEBFFEBF83
:10791C00FEBFFEC0FEC0FEC0FEC0FEC0FEC0FEC06C
:10792C00FEC0FEC0FEC1FEC1FEC1FEC1FEC1FEC155
:10793C00FEC1FEC1FEC1FEC1FEC2FEC2FEC2FEC23F
:10794C00FEC2FEC2FEC2FEC2FEC2FEC2FEC3FEC329
:10795C00FEC3FEC3FEC3FEC3FEC3FEC3FEC3FEC313
:10796C00FEC4FEC4FEC4FEC4FEC4FEC4FEC4FEC4FB
:10797C00FEC4FEC4FEC5FEC5FEC5FEC5FEC5FEC5E5
:10798C00FEC5FEC5FEC5FEC5FEC6FEC6FEC6FEC6CF
:10799C00FEC6FEC6FEC6FEC6FEC6FEC6FEC7FEC7B9
:1079AC00FEC7FEC7FEC7FEC7FEC7FEC7FEC7FEC7A3
:1079BC00FEC8FEC8FEC8FEC8FEC8FEC8FEC8FEC88B
:1079CC00FEC8FEC8FEC8FEC9FEC9FEC9FEC9FEC976
:1079DC00FEC9FEC9FEC9FEC9FEC9FECAFECAFECA60
:1079EC00FECAFECAFECAFECAFECAFECAFECAFECA4B
:1079FC00FECBFECBFECBFECBFECBFECBFECBFECB33
:107A0C00FECBFECBFECCFECCFECCFECCFECCFECC1C
:107A1C00FECCFECCFECCFECCFECCFECDFECDFECD07
:107A2C00FECDFECDFECDFECDFECDFECDFECDFECEF1
:107A3C00FECEFECEFECEFECEFECEFECEFECEFECEDA
:107A4C00FECEFECEFECFFECFFECFFECFFECFFECFC4
:107A5C00FECFFECFFECFFECFFECFFED0FED0FED0AF
:107A6C00FED0FED0FED0FED0FED0FED0FED0FED199
:107A7C00FED1FED1FED1FED1FED1FED1FED1FED182
:107A8C00FED1FED1FED2FED2FED2FED2FED2FED26C
:107A9C00FED2FED2FED2FED2FED2FED3FED3FED357
:107AAC00FED3FED3FED3FED3FED3FED3FED3FED342
:107ABC00FED4FED4FED4FED4FED4FED4FED4FED42A
:107ACC00FED4FED4FED4FED5FED5FED5FED5FED515
:107ADC00FED5FED5FED5FED5FED5FED5FED5FED601
:107AEC00FED6FED6FED6FED6FED6FED6FED6FED6EA
:107AFC00FED6FED6FED7FED7FED7FED7FED7FED7D4
:107B0C00FED7FED7FED7FED7FED7FED8FED8FED8BE
:107B1C00FED8FED8FED8FED8FED8FED8FED8FED8A9
:107B2C00FED8FED9FED9FED9FED9FED9FED9FED992
:107B3C00FED9FED9FED9FED9FEDAFEDAFEDAFEDA7D
:107B4C00FEDAFEDAFEDAFEDAFEDAFEDAFEDAFEDA69
:107B5C00FEDBFEDBFEDBFEDBFEDBFEDBFEDBFEDB51
:107B6C00FEDBFEDBFEDBFEDCFEDCFEDCFEDCFEDC3C
:107B7C00FEDCFEDCFEDCFEDCFEDCFEDCFEDCFEDD28
:107B8C00FEDDFEDDFEDDFEDDFEDDFEDDFEDDFEDD11
:107B9C00FEDDFEDDFEDDFEDEFEDEFEDEFEDEFEDEFC
:107BAC00FEDEFEDEFEDEFEDEFEDEFEDEFEDEFEDFE8
:107BBC00FEDFFEDFFEDFFEDFFEDFFEDFFEDFFEDFD1
:107BCC00FEDFFEDFFEDFFEE0FEE0FEE0FEE0FEE0BC
:107BDC00FEE0FEE0FEE0FEE0FEE0FEE0FEE0FEE1A8
:107BEC00FEE1FEE1FEE1FEE1FEE1FEE1FEE1FEE191
:107BFC00FEE1FEE1FEE1FEE2FEE2FEE2FEE2FEE27C
:107C0C00FEE2FEE2FEE2FEE2FEE2FEE2FEE2FEE367
:107C1C00FEE3FEE3FEE3FEE3FEE3FEE3FEE3FEE350
:107C2C00FEE3FEE3FEE3FEE4FEE4FEE4FEE4FEE43B
:107C3C00FEE4FEE4FEE4FEE4FEE4FEE4FEE4FEE428
:107C4C00FEE5FEE5FEE5FEE5FEE5FEE5FEE5FEE510
:107C5C00FEE5FEE5FEE5FEE5FEE6FEE6FEE6FEE6FC
:107C6C00FEE6FEE6FEE6FEE6FEE6FEE6FEE6FEE6E8
:107C7C00FEE6FEE7FEE7FEE7FEE7FEE7FEE7FEE7D1
:107C8C00FEE7FEE7FEE7FEE7FEE7FEE7FEE8FEE8BE
:107C9C00FEE8FEE8FEE8FEE8FEE8FEE8FEE8FEE8A8
:107CAC00FEE8FEE8FEE9FEE9FEE9FEE9FEE9FEE992
:107CBC00FEE9FEE9FEE9FEE9FEE9FEE9FEE9FEEA7F
:107CCC00FEEAFEEAFEEAFEEAFEEAFEEAFEEAFEEA68
:107CDC00FEEAFEEAFEEAFEEAFEEBFEEBFEEBFEEB54
:107CEC00FEEBFEEBFEEBFEEBFEEBFEEBFEEBFEEB40
:107CFC00FEEBFEECFEECFEECFEECFEECFEECFEEC29
:107D0C00FEECFEECFEECFEECFEECFEECFEEDFEED15
:107D1C00FEEDFEEDFEEDFEEDFEEDFEEDFEEDFEEDFF
:107D2C00FEEDFEEDFEEDFEEEFEEEFEEEFEEEFEEEEA
:107D3C00FEEEFEEEFEEEFEEEFEEEFEEEFEEEFEEED7
:107D4C00FEEEFEEFFEEFFEEFFEEFFEEFFEEFFEEFC0
:107D5C00FEEFFEEFFEEFFEEFFEEFFEEFFEF0FEF0AD
:107D6C00FEF0FEF0FEF0FEF0FEF0FEF0FEF0FEF097
:107D7C00FEF0FEF0FEF0FEF0FEF1FEF1FEF1FEF183
:107D8C00FEF1FEF1FEF1FEF1FEF1FEF1FEF1FEF16F
:107D9C00FEF1FEF2FEF2FEF2FEF2FEF2FEF2FEF258
:107DAC00FEF2FEF2FEF2FEF2FEF2FEF2FEF2FEF346
:107DBC00FEF3FEF3FEF3FEF3FEF3FEF3FEF3FEF32F
:107DCC00FEF3FEF3FEF3FEF3FEF3FEF4FEF4FEF41C
:107DDC00FEF4FEF4FEF4FEF4FEF4FEF4FEF4FEF407
:107DEC00FEF4FEF4FEF4FEF5FEF5FEF5FEF5FEF5F2
:107DFC00FEF5FEF5FEF5FEF5FEF5FEF5FEF5FEF5DF
:107E0C00FEF5FEF6FEF6FEF6FEF6FEF6FEF6FEF6C7
:107E1C00FEF6FEF6FEF6FEF6FEF6FEF6FEF6FEF7B5
:107E2C00FEF7FEF7FEF7FEF7FEF7FEF7FEF7FEF79E
:107E3C00FEF7FEF7FEF7FEF7FEF7FEF8FEF8FEF88B
:107E4C00FEF8FEF8FEF8FEF8FEF8FEF8FEF8FEF876
:107E5C00FEF8FEF8FEF8FEF8FEF9FEF9FEF9FEF962
:107E6C00FEF9FEF9FEF9FEF9FEF9FEF9FEF9FEF94E
:107E7C00FEF9FEF9FEFAFEFAFEFAFEFAFEFAFEFA38
:107E8C00FEFAFEFAFEFAFEFAFEFAFEFAFEFAFEFA26
:107E9C00FEFAFEFBFEFBFEFBFEFBFEFBFEFBFEFB0F
:107EAC00FEFBFEFBFEFBFEFBFEFBFEFBFEFBFEFCFD
:107EBC00FEFCFEFCFEFCFEFCFEFCFEFCFEFCFEFCE6
:107ECC00FEFCFEFCFEFCFEFCFEFCFEFCFEFDFEFDD4
:107EDC00FEFDFEFDFEFDFEFDFEFDFEFDFEFDFEFDBE
:107EEC00FEFDFEFDFEFDFEFDFEFDFEFEFEFEFEFEAB
:107EFC00FEFEFEFEFEFEFEFEFEFEFEFEFEFEFEFE96
:107F0C00FEFEFEFEFEFEFEFEFEFFFEFFFEFFFEFF81
:107F1C00FEFFFEFFFEFFFEFFFEFFFEFFFEFFFEFF6D
:107F2C00FEFFFEFFFEFFFE00FF00FF00FF00FF0054
:107F3C00FF00FF00FF00FF00FF00FF00FF00FF003D
:107F4C00FF00FF00FF01FF01FF01FF01FF01FF0127
:107F5C00FF01FF01FF01FF01FF01FF01FF01FF0115
:107F6C00FF01FF01FF02FF02FF02FF02FF02FF02FF
:107F7C00FF02FF02FF02FF02FF02FF02FF02FF02ED
:107F8C00FF02FF03FF03FF03FF03FF03FF03FF03D6
:107F9C00FF03FF03FF03FF03FF03FF03FF03FF03C5
:107FAC00FF03FF04FF04FF04FF04FF04FF04FF04AE
:107FBC00FF04FF04FF04FF04FF04FF04FF04FF049D
:107FCC00FF04FF05FF05FF05FF05FF05FF05FF0586
:107FDC00FF05FF05FF05FF05FF05FF05FF05FF0575
:107FEC00FF05FF06FF06FF06FF06FF06FF06FF065E
:047FFC00FF06FF007D
:020000040020DA
:08000000FFFFFFFFFFFFFFFF00
:020000040030CA
:0E00000014137E7CFF8991FF0FC00FE00F40AC
:00000001FF
